{
  "contractName": "DSM",
  "abi": [
    {
      "inputs": [
        {
          "internalType": "string",
          "name": "nm",
          "type": "string"
        },
        {
          "internalType": "string",
          "name": "sym",
          "type": "string"
        },
        {
          "internalType": "uint256",
          "name": "ts",
          "type": "uint256"
        }
      ],
      "payable": false,
      "stateMutability": "nonpayable",
      "type": "constructor"
    },
    {
      "anonymous": false,
      "inputs": [
        {
          "indexed": true,
          "internalType": "address",
          "name": "_owner",
          "type": "address"
        },
        {
          "indexed": true,
          "internalType": "address",
          "name": "_approved",
          "type": "address"
        },
        {
          "indexed": true,
          "internalType": "uint256",
          "name": "_tokenId",
          "type": "uint256"
        }
      ],
      "name": "Approval",
      "type": "event"
    },
    {
      "anonymous": false,
      "inputs": [
        {
          "indexed": true,
          "internalType": "address",
          "name": "_owner",
          "type": "address"
        },
        {
          "indexed": true,
          "internalType": "address",
          "name": "_operator",
          "type": "address"
        },
        {
          "indexed": false,
          "internalType": "bool",
          "name": "_approved",
          "type": "bool"
        }
      ],
      "name": "ApprovalForAll",
      "type": "event"
    },
    {
      "anonymous": false,
      "inputs": [
        {
          "indexed": true,
          "internalType": "address",
          "name": "_from",
          "type": "address"
        },
        {
          "indexed": true,
          "internalType": "address",
          "name": "_to",
          "type": "address"
        },
        {
          "indexed": true,
          "internalType": "uint256",
          "name": "_tokenId",
          "type": "uint256"
        }
      ],
      "name": "Transfer",
      "type": "event"
    },
    {
      "constant": false,
      "inputs": [
        {
          "internalType": "address",
          "name": "_operator",
          "type": "address"
        },
        {
          "internalType": "address",
          "name": "_from",
          "type": "address"
        },
        {
          "internalType": "uint256",
          "name": "_tokenId",
          "type": "uint256"
        },
        {
          "internalType": "bytes",
          "name": "_data",
          "type": "bytes"
        }
      ],
      "name": "onERC721Received",
      "outputs": [
        {
          "internalType": "bytes4",
          "name": "",
          "type": "bytes4"
        }
      ],
      "payable": false,
      "stateMutability": "nonpayable",
      "type": "function"
    },
    {
      "constant": true,
      "inputs": [
        {
          "internalType": "bytes4",
          "name": "interfaceID",
          "type": "bytes4"
        }
      ],
      "name": "supportsInterface",
      "outputs": [
        {
          "internalType": "bool",
          "name": "",
          "type": "bool"
        }
      ],
      "payable": false,
      "stateMutability": "view",
      "type": "function"
    },
    {
      "constant": true,
      "inputs": [],
      "name": "name",
      "outputs": [
        {
          "internalType": "string",
          "name": "",
          "type": "string"
        }
      ],
      "payable": false,
      "stateMutability": "view",
      "type": "function"
    },
    {
      "constant": true,
      "inputs": [],
      "name": "symbol",
      "outputs": [
        {
          "internalType": "string",
          "name": "",
          "type": "string"
        }
      ],
      "payable": false,
      "stateMutability": "view",
      "type": "function"
    },
    {
      "constant": true,
      "inputs": [],
      "name": "totalSupply",
      "outputs": [
        {
          "internalType": "uint256",
          "name": "",
          "type": "uint256"
        }
      ],
      "payable": false,
      "stateMutability": "view",
      "type": "function"
    },
    {
      "constant": true,
      "inputs": [
        {
          "internalType": "uint256",
          "name": "_index",
          "type": "uint256"
        }
      ],
      "name": "tokenByIndex",
      "outputs": [
        {
          "internalType": "uint256",
          "name": "",
          "type": "uint256"
        }
      ],
      "payable": false,
      "stateMutability": "view",
      "type": "function"
    },
    {
      "constant": true,
      "inputs": [
        {
          "internalType": "address",
          "name": "owner",
          "type": "address"
        },
        {
          "internalType": "uint256",
          "name": "_index",
          "type": "uint256"
        }
      ],
      "name": "tokenOfOwnerByIndex",
      "outputs": [
        {
          "internalType": "uint256",
          "name": "",
          "type": "uint256"
        }
      ],
      "payable": false,
      "stateMutability": "view",
      "type": "function"
    },
    {
      "constant": true,
      "inputs": [
        {
          "internalType": "uint256",
          "name": "_tokenId",
          "type": "uint256"
        }
      ],
      "name": "tokenURI",
      "outputs": [
        {
          "internalType": "string",
          "name": "",
          "type": "string"
        }
      ],
      "payable": false,
      "stateMutability": "view",
      "type": "function"
    },
    {
      "constant": true,
      "inputs": [
        {
          "internalType": "address",
          "name": "owner",
          "type": "address"
        }
      ],
      "name": "balanceOf",
      "outputs": [
        {
          "internalType": "uint256",
          "name": "",
          "type": "uint256"
        }
      ],
      "payable": false,
      "stateMutability": "view",
      "type": "function"
    },
    {
      "constant": true,
      "inputs": [
        {
          "internalType": "uint256",
          "name": "_tokenId",
          "type": "uint256"
        }
      ],
      "name": "ownerOf",
      "outputs": [
        {
          "internalType": "address",
          "name": "",
          "type": "address"
        }
      ],
      "payable": false,
      "stateMutability": "view",
      "type": "function"
    },
    {
      "constant": false,
      "inputs": [
        {
          "internalType": "address",
          "name": "_from",
          "type": "address"
        },
        {
          "internalType": "address",
          "name": "_to",
          "type": "address"
        },
        {
          "internalType": "uint256",
          "name": "_tokenId",
          "type": "uint256"
        }
      ],
      "name": "safeTransferFrom",
      "outputs": [],
      "payable": true,
      "stateMutability": "payable",
      "type": "function"
    },
    {
      "constant": false,
      "inputs": [
        {
          "internalType": "address",
          "name": "_from",
          "type": "address"
        },
        {
          "internalType": "address",
          "name": "_to",
          "type": "address"
        },
        {
          "internalType": "uint256",
          "name": "_tokenId",
          "type": "uint256"
        },
        {
          "internalType": "bytes",
          "name": "data",
          "type": "bytes"
        }
      ],
      "name": "safeTransferFrom",
      "outputs": [],
      "payable": true,
      "stateMutability": "payable",
      "type": "function"
    },
    {
      "constant": false,
      "inputs": [
        {
          "internalType": "address",
          "name": "_from",
          "type": "address"
        },
        {
          "internalType": "address",
          "name": "_to",
          "type": "address"
        },
        {
          "internalType": "uint256",
          "name": "_tokenId",
          "type": "uint256"
        }
      ],
      "name": "transferFrom",
      "outputs": [],
      "payable": true,
      "stateMutability": "payable",
      "type": "function"
    },
    {
      "constant": false,
      "inputs": [
        {
          "internalType": "address",
          "name": "_approved",
          "type": "address"
        },
        {
          "internalType": "uint256",
          "name": "_tokenId",
          "type": "uint256"
        }
      ],
      "name": "approve",
      "outputs": [],
      "payable": true,
      "stateMutability": "payable",
      "type": "function"
    },
    {
      "constant": false,
      "inputs": [
        {
          "internalType": "address",
          "name": "_operator",
          "type": "address"
        },
        {
          "internalType": "bool",
          "name": "_approved",
          "type": "bool"
        }
      ],
      "name": "setApprovalForAll",
      "outputs": [],
      "payable": false,
      "stateMutability": "nonpayable",
      "type": "function"
    },
    {
      "constant": true,
      "inputs": [
        {
          "internalType": "uint256",
          "name": "_tokenId",
          "type": "uint256"
        }
      ],
      "name": "getApproved",
      "outputs": [
        {
          "internalType": "address",
          "name": "",
          "type": "address"
        }
      ],
      "payable": false,
      "stateMutability": "view",
      "type": "function"
    },
    {
      "constant": true,
      "inputs": [
        {
          "internalType": "address",
          "name": "owner",
          "type": "address"
        },
        {
          "internalType": "address",
          "name": "_operator",
          "type": "address"
        }
      ],
      "name": "isApprovedForAll",
      "outputs": [
        {
          "internalType": "bool",
          "name": "",
          "type": "bool"
        }
      ],
      "payable": false,
      "stateMutability": "view",
      "type": "function"
    }
  ],
  "bytecode": "0x60806040526040518060400160405280600481526020017f457a726100000000000000000000000000000000000000000000000000000000815250600090805190602001906200005192919062000359565b506040518060400160405280600281526020017f455a000000000000000000000000000000000000000000000000000000000000815250600190805190602001906200009f92919062000359565b50348015620000ad57600080fd5b50604051620027fb380380620027fb83398181016040526060811015620000d357600080fd5b8101908080516040519392919084640100000000821115620000f457600080fd5b838201915060208201858111156200010b57600080fd5b82518660018202830111640100000000821117156200012957600080fd5b8083526020830192505050908051906020019080838360005b838110156200015f57808201518184015260208101905062000142565b50505050905090810190601f1680156200018d5780820380516001836020036101000a031916815260200191505b5060405260200180516040519392919084640100000000821115620001b157600080fd5b83820191506020820185811115620001c857600080fd5b8251866001820283011164010000000082111715620001e657600080fd5b8083526020830192505050908051906020019080838360005b838110156200021c578082015181840152602081019050620001ff565b50505050905090810190601f1680156200024a5780820380516001836020036101000a031916815260200191505b506040526020018051906020019092919050505082600090805190602001906200027692919062000359565b5081600190805190602001906200028f92919062000359565b5080600281905550620002af6380ac58cd60e01b620002b860201b60201c565b50505062000408565b63ffffffff60e01b817bffffffffffffffffffffffffffffffffffffffffffffffffffffffff19161415620002ec57600080fd5b600160056000837bffffffffffffffffffffffffffffffffffffffffffffffffffffffff19167bffffffffffffffffffffffffffffffffffffffffffffffffffffffff1916815260200190815260200160002060006101000a81548160ff02191690831515021790555050565b828054600181600116156101000203166002900490600052602060002090601f016020900481019282601f106200039c57805160ff1916838001178555620003cd565b82800160010185558215620003cd579182015b82811115620003cc578251825591602001919060010190620003af565b5b509050620003dc9190620003e0565b5090565b6200040591905b8082111562000401576000816000905550600101620003e7565b5090565b90565b6123e380620004186000396000f3fe6080604052600436106100fe5760003560e01c806342842e0e1161009557806395d89b411161006457806395d89b4114610695578063a22cb46514610725578063b88d4fde14610782578063c87b56dd14610845578063e985e9c5146108f9576100fe565b806342842e0e146104f85780634f6ccce7146105665780636352211e146105b557806370a0823114610630576100fe565b8063150b7a02116100d1578063150b7a02146102ce57806318160ddd146103f057806323b872dd1461041b5780632f745c5914610489576100fe565b806301ffc9a71461010357806306fdde0314610175578063081812fc14610205578063095ea7b314610280575b600080fd5b34801561010f57600080fd5b5061015b6004803603602081101561012657600080fd5b8101908080357bffffffffffffffffffffffffffffffffffffffffffffffffffffffff19169060200190929190505050610982565b604051808215151515815260200191505060405180910390f35b34801561018157600080fd5b5061018a6109ea565b6040518080602001828103825283818151815260200191508051906020019080838360005b838110156101ca5780820151818401526020810190506101af565b50505050905090810190601f1680156101f75780820380516001836020036101000a031916815260200191505b509250505060405180910390f35b34801561021157600080fd5b5061023e6004803603602081101561022857600080fd5b8101908080359060200190929190505050610a8c565b604051808273ffffffffffffffffffffffffffffffffffffffff1673ffffffffffffffffffffffffffffffffffffffff16815260200191505060405180910390f35b6102cc6004803603604081101561029657600080fd5b81019080803573ffffffffffffffffffffffffffffffffffffffff16906020019092919080359060200190929190505050610b8d565b005b3480156102da57600080fd5b5061039c600480360360808110156102f157600080fd5b81019080803573ffffffffffffffffffffffffffffffffffffffff169060200190929190803573ffffffffffffffffffffffffffffffffffffffff169060200190929190803590602001909291908035906020019064010000000081111561035857600080fd5b82018360208201111561036a57600080fd5b8035906020019184600183028401116401000000008311171561038c57600080fd5b9091929391929390505050610e5e565b60405180827bffffffffffffffffffffffffffffffffffffffffffffffffffffffff19167bffffffffffffffffffffffffffffffffffffffffffffffffffffffff1916815260200191505060405180910390f35b3480156103fc57600080fd5b50610405610e84565b6040518082815260200191505060405180910390f35b6104876004803603606081101561043157600080fd5b81019080803573ffffffffffffffffffffffffffffffffffffffff169060200190929190803573ffffffffffffffffffffffffffffffffffffffff16906020019092919080359060200190929190505050610e8e565b005b34801561049557600080fd5b506104e2600480360360408110156104ac57600080fd5b81019080803573ffffffffffffffffffffffffffffffffffffffff1690602001909291908035906020019092919050505061145a565b6040518082815260200191505060405180910390f35b6105646004803603606081101561050e57600080fd5b81019080803573ffffffffffffffffffffffffffffffffffffffff169060200190929190803573ffffffffffffffffffffffffffffffffffffffff1690602001909291908035906020019092919050505061157c565b005b34801561057257600080fd5b5061059f6004803603602081101561058957600080fd5b810190808035906020019092919050505061168d565b6040518082815260200191505060405180910390f35b3480156105c157600080fd5b506105ee600480360360208110156105d857600080fd5b810190808035906020019092919050505061173a565b604051808273ffffffffffffffffffffffffffffffffffffffff1673ffffffffffffffffffffffffffffffffffffffff16815260200191505060405180910390f35b34801561063c57600080fd5b5061067f6004803603602081101561065357600080fd5b81019080803573ffffffffffffffffffffffffffffffffffffffff1690602001909291905050506117b6565b6040518082815260200191505060405180910390f35b3480156106a157600080fd5b506106aa611838565b6040518080602001828103825283818151815260200191508051906020019080838360005b838110156106ea5780820151818401526020810190506106cf565b50505050905090810190601f1680156107175780820380516001836020036101000a031916815260200191505b509250505060405180910390f35b34801561073157600080fd5b506107806004803603604081101561074857600080fd5b81019080803573ffffffffffffffffffffffffffffffffffffffff1690602001909291908035151590602001909291905050506118da565b005b6108436004803603608081101561079857600080fd5b81019080803573ffffffffffffffffffffffffffffffffffffffff169060200190929190803573ffffffffffffffffffffffffffffffffffffffff16906020019092919080359060200190929190803590602001906401000000008111156107ff57600080fd5b82018360208201111561081157600080fd5b8035906020019184600183028401116401000000008311171561083357600080fd5b9091929391929390505050611a14565b005b34801561085157600080fd5b5061087e6004803603602081101561086857600080fd5b8101908080359060200190929190505050611fe3565b6040518080602001828103825283818151815260200191508051906020019080838360005b838110156108be5780820151818401526020810190506108a3565b50505050905090810190601f1680156108eb5780820380516001836020036101000a031916815260200191505b509250505060405180910390f35b34801561090557600080fd5b506109686004803603604081101561091c57600080fd5b81019080803573ffffffffffffffffffffffffffffffffffffffff169060200190929190803573ffffffffffffffffffffffffffffffffffffffff169060200190929190505050612105565b604051808215151515815260200191505060405180910390f35b600060056000837bffffffffffffffffffffffffffffffffffffffffffffffffffffffff19167bffffffffffffffffffffffffffffffffffffffffffffffffffffffff1916815260200190815260200160002060009054906101000a900460ff169050919050565b606060008054600181600116156101000203166002900480601f016020809104026020016040519081016040528092919081815260200182805460018160011615610100020316600290048015610a825780601f10610a5757610100808354040283529160200191610a82565b820191906000526020600020905b815481529060010190602001808311610a6557829003601f168201915b5050505050905090565b60008073ffffffffffffffffffffffffffffffffffffffff163073ffffffffffffffffffffffffffffffffffffffff16636352211e846040518263ffffffff1660e01b81526004018082815260200191505060206040518083038186803b158015610af657600080fd5b505afa158015610b0a573d6000803e3d6000fd5b505050506040513d6020811015610b2057600080fd5b810190808051906020019092919050505073ffffffffffffffffffffffffffffffffffffffff161415610b5257600080fd5b6008600083815260200190815260200160002060009054906101000a900473ffffffffffffffffffffffffffffffffffffffff169050919050565b600073ffffffffffffffffffffffffffffffffffffffff168273ffffffffffffffffffffffffffffffffffffffff161415610bc757600080fd5b3373ffffffffffffffffffffffffffffffffffffffff163073ffffffffffffffffffffffffffffffffffffffff16636352211e836040518263ffffffff1660e01b81526004018082815260200191505060206040518083038186803b158015610c2f57600080fd5b505afa158015610c43573d6000803e3d6000fd5b505050506040513d6020811015610c5957600080fd5b810190808051906020019092919050505073ffffffffffffffffffffffffffffffffffffffff161480610d19575060011515600a60003373ffffffffffffffffffffffffffffffffffffffff1673ffffffffffffffffffffffffffffffffffffffff16815260200190815260200160002060008473ffffffffffffffffffffffffffffffffffffffff1673ffffffffffffffffffffffffffffffffffffffff16815260200190815260200160002060009054906101000a900460ff161515145b610d2257600080fd5b816008600083815260200190815260200160002060006101000a81548173ffffffffffffffffffffffffffffffffffffffff021916908373ffffffffffffffffffffffffffffffffffffffff160217905550808273ffffffffffffffffffffffffffffffffffffffff163073ffffffffffffffffffffffffffffffffffffffff16636352211e846040518263ffffffff1660e01b81526004018082815260200191505060206040518083038186803b158015610ddd57600080fd5b505afa158015610df1573d6000803e3d6000fd5b505050506040513d6020811015610e0757600080fd5b810190808051906020019092919050505073ffffffffffffffffffffffffffffffffffffffff167f8c5be1e5ebec7d5bd14f71427d1e84f3dd0314c0f7b2291e5b200ac8c7c3b92560405160405180910390a45050565b60006040518080612380602f9139602f0190506040518091039020905095945050505050565b6000600254905090565b3373ffffffffffffffffffffffffffffffffffffffff163073ffffffffffffffffffffffffffffffffffffffff16636352211e836040518263ffffffff1660e01b81526004018082815260200191505060206040518083038186803b158015610ef657600080fd5b505afa158015610f0a573d6000803e3d6000fd5b505050506040513d6020811015610f2057600080fd5b810190808051906020019092919050505073ffffffffffffffffffffffffffffffffffffffff161480610fe0575060011515600a60008573ffffffffffffffffffffffffffffffffffffffff1673ffffffffffffffffffffffffffffffffffffffff16815260200190815260200160002060003373ffffffffffffffffffffffffffffffffffffffff1673ffffffffffffffffffffffffffffffffffffffff16815260200190815260200160002060009054906101000a900460ff161515145b806110a157503373ffffffffffffffffffffffffffffffffffffffff163073ffffffffffffffffffffffffffffffffffffffff1663081812fc836040518263ffffffff1660e01b81526004018082815260200191505060206040518083038186803b15801561104e57600080fd5b505afa158015611062573d6000803e3d6000fd5b505050506040513d602081101561107857600080fd5b810190808051906020019092919050505073ffffffffffffffffffffffffffffffffffffffff16145b6110aa57600080fd5b8273ffffffffffffffffffffffffffffffffffffffff163073ffffffffffffffffffffffffffffffffffffffff16636352211e836040518263ffffffff1660e01b81526004018082815260200191505060206040518083038186803b15801561111257600080fd5b505afa158015611126573d6000803e3d6000fd5b505050506040513d602081101561113c57600080fd5b810190808051906020019092919050505073ffffffffffffffffffffffffffffffffffffffff161461116d57600080fd5b600073ffffffffffffffffffffffffffffffffffffffff168273ffffffffffffffffffffffffffffffffffffffff1614156111a757600080fd5b600073ffffffffffffffffffffffffffffffffffffffff163073ffffffffffffffffffffffffffffffffffffffff16636352211e836040518263ffffffff1660e01b81526004018082815260200191505060206040518083038186803b15801561121057600080fd5b505afa158015611224573d6000803e3d6000fd5b505050506040513d602081101561123a57600080fd5b810190808051906020019092919050505073ffffffffffffffffffffffffffffffffffffffff16141561126c57600080fd5b3073ffffffffffffffffffffffffffffffffffffffff1663095ea7b36000836040518363ffffffff1660e01b8152600401808373ffffffffffffffffffffffffffffffffffffffff1673ffffffffffffffffffffffffffffffffffffffff16815260200182815260200192505050600060405180830381600087803b1580156112f457600080fd5b505af1158015611308573d6000803e3d6000fd5b505050506001600660008573ffffffffffffffffffffffffffffffffffffffff1673ffffffffffffffffffffffffffffffffffffffff168152602001908152602001600020600082825403925050819055506001600660008473ffffffffffffffffffffffffffffffffffffffff1673ffffffffffffffffffffffffffffffffffffffff16815260200190815260200160002060008282540192505081905550816007600083815260200190815260200160002060006101000a81548173ffffffffffffffffffffffffffffffffffffffff021916908373ffffffffffffffffffffffffffffffffffffffff160217905550808273ffffffffffffffffffffffffffffffffffffffff168473ffffffffffffffffffffffffffffffffffffffff167fddf252ad1be2c89b69c2b068fc378daa952ba7f163c4a11628f55a4df523b3ef60405160405180910390a4505050565b60003073ffffffffffffffffffffffffffffffffffffffff166370a08231846040518263ffffffff1660e01b8152600401808273ffffffffffffffffffffffffffffffffffffffff1673ffffffffffffffffffffffffffffffffffffffff16815260200191505060206040518083038186803b1580156114d957600080fd5b505afa1580156114ed573d6000803e3d6000fd5b505050506040513d602081101561150357600080fd5b8101908080519060200190929190505050821061151f57600080fd5b600960008473ffffffffffffffffffffffffffffffffffffffff1673ffffffffffffffffffffffffffffffffffffffff168152602001908152602001600020828154811061156957fe5b9060005260206000200154905092915050565b3073ffffffffffffffffffffffffffffffffffffffff1663b88d4fde8484846040518463ffffffff1660e01b8152600401808473ffffffffffffffffffffffffffffffffffffffff1673ffffffffffffffffffffffffffffffffffffffff1681526020018373ffffffffffffffffffffffffffffffffffffffff1673ffffffffffffffffffffffffffffffffffffffff16815260200182815260200180602001828103825260018152602001807f2000000000000000000000000000000000000000000000000000000000000000815250602001945050505050600060405180830381600087803b15801561167057600080fd5b505af1158015611684573d6000803e3d6000fd5b50505050505050565b60003073ffffffffffffffffffffffffffffffffffffffff166318160ddd6040518163ffffffff1660e01b815260040160206040518083038186803b1580156116d557600080fd5b505afa1580156116e9573d6000803e3d6000fd5b505050506040513d60208110156116ff57600080fd5b8101908080519060200190929190505050821061171b57600080fd5b6003828154811061172857fe5b90600052602060002001549050919050565b6000806007600084815260200190815260200160002060009054906101000a900473ffffffffffffffffffffffffffffffffffffffff169050600073ffffffffffffffffffffffffffffffffffffffff168173ffffffffffffffffffffffffffffffffffffffff1614156117ad57600080fd5b80915050919050565b60008073ffffffffffffffffffffffffffffffffffffffff168273ffffffffffffffffffffffffffffffffffffffff1614156117f157600080fd5b600660008373ffffffffffffffffffffffffffffffffffffffff1673ffffffffffffffffffffffffffffffffffffffff168152602001908152602001600020549050919050565b606060018054600181600116156101000203166002900480601f0160208091040260200160405190810160405280929190818152602001828054600181600116156101000203166002900480156118d05780601f106118a5576101008083540402835291602001916118d0565b820191906000526020600020905b8154815290600101906020018083116118b357829003601f168201915b5050505050905090565b3373ffffffffffffffffffffffffffffffffffffffff168273ffffffffffffffffffffffffffffffffffffffff16141561191357600080fd5b80600a60003373ffffffffffffffffffffffffffffffffffffffff1673ffffffffffffffffffffffffffffffffffffffff16815260200190815260200160002060008473ffffffffffffffffffffffffffffffffffffffff1673ffffffffffffffffffffffffffffffffffffffff16815260200190815260200160002060006101000a81548160ff0219169083151502179055508173ffffffffffffffffffffffffffffffffffffffff163373ffffffffffffffffffffffffffffffffffffffff167f17307eab39ab6107e8899845ad3d59bd9653f200f220920489ca2b5937696c3183604051808215151515815260200191505060405180910390a35050565b3373ffffffffffffffffffffffffffffffffffffffff163073ffffffffffffffffffffffffffffffffffffffff16636352211e856040518263ffffffff1660e01b81526004018082815260200191505060206040518083038186803b158015611a7c57600080fd5b505afa158015611a90573d6000803e3d6000fd5b505050506040513d6020811015611aa657600080fd5b810190808051906020019092919050505073ffffffffffffffffffffffffffffffffffffffff161480611b66575060011515600a60008773ffffffffffffffffffffffffffffffffffffffff1673ffffffffffffffffffffffffffffffffffffffff16815260200190815260200160002060003373ffffffffffffffffffffffffffffffffffffffff1673ffffffffffffffffffffffffffffffffffffffff16815260200190815260200160002060009054906101000a900460ff161515145b80611bcf57503373ffffffffffffffffffffffffffffffffffffffff166008600085815260200190815260200160002060009054906101000a900473ffffffffffffffffffffffffffffffffffffffff1673ffffffffffffffffffffffffffffffffffffffff16145b611bd857600080fd5b8473ffffffffffffffffffffffffffffffffffffffff163073ffffffffffffffffffffffffffffffffffffffff16636352211e856040518263ffffffff1660e01b81526004018082815260200191505060206040518083038186803b158015611c4057600080fd5b505afa158015611c54573d6000803e3d6000fd5b505050506040513d6020811015611c6a57600080fd5b810190808051906020019092919050505073ffffffffffffffffffffffffffffffffffffffff1614611c9b57600080fd5b600073ffffffffffffffffffffffffffffffffffffffff168473ffffffffffffffffffffffffffffffffffffffff161415611cd557600080fd5b600073ffffffffffffffffffffffffffffffffffffffff163073ffffffffffffffffffffffffffffffffffffffff16636352211e856040518263ffffffff1660e01b81526004018082815260200191505060206040518083038186803b158015611d3e57600080fd5b505afa158015611d52573d6000803e3d6000fd5b505050506040513d6020811015611d6857600080fd5b810190808051906020019092919050505073ffffffffffffffffffffffffffffffffffffffff161415611d9a57600080fd5b611dea85858585858080601f016020809104026020016040519081016040528093929190818152602001838380828437600081840152601f19601f82011690508083019250505050505050612199565b611df357600080fd5b3073ffffffffffffffffffffffffffffffffffffffff1663095ea7b36000856040518363ffffffff1660e01b8152600401808373ffffffffffffffffffffffffffffffffffffffff1673ffffffffffffffffffffffffffffffffffffffff16815260200182815260200192505050600060405180830381600087803b158015611e7b57600080fd5b505af1158015611e8f573d6000803e3d6000fd5b505050506001600660008773ffffffffffffffffffffffffffffffffffffffff1673ffffffffffffffffffffffffffffffffffffffff168152602001908152602001600020600082825403925050819055506001600660008673ffffffffffffffffffffffffffffffffffffffff1673ffffffffffffffffffffffffffffffffffffffff16815260200190815260200160002060008282540192505081905550836007600085815260200190815260200160002060006101000a81548173ffffffffffffffffffffffffffffffffffffffff021916908373ffffffffffffffffffffffffffffffffffffffff160217905550828473ffffffffffffffffffffffffffffffffffffffff168673ffffffffffffffffffffffffffffffffffffffff167fddf252ad1be2c89b69c2b068fc378daa952ba7f163c4a11628f55a4df523b3ef60405160405180910390a45050505050565b6060600073ffffffffffffffffffffffffffffffffffffffff166007600084815260200190815260200160002060009054906101000a900473ffffffffffffffffffffffffffffffffffffffff1673ffffffffffffffffffffffffffffffffffffffff16141561205257600080fd5b600460008381526020019081526020016000208054600181600116156101000203166002900480601f0160208091040260200160405190810160405280929190818152602001828054600181600116156101000203166002900480156120f95780601f106120ce576101008083540402835291602001916120f9565b820191906000526020600020905b8154815290600101906020018083116120dc57829003601f168201915b50505050509050919050565b6000600a60008473ffffffffffffffffffffffffffffffffffffffff1673ffffffffffffffffffffffffffffffffffffffff16815260200190815260200160002060008373ffffffffffffffffffffffffffffffffffffffff1673ffffffffffffffffffffffffffffffffffffffff16815260200190815260200160002060009054906101000a900460ff16905092915050565b60006121a48461236c565b6121b15760019050612364565b60008473ffffffffffffffffffffffffffffffffffffffff1663150b7a02338887876040518563ffffffff1660e01b8152600401808573ffffffffffffffffffffffffffffffffffffffff1673ffffffffffffffffffffffffffffffffffffffff1681526020018473ffffffffffffffffffffffffffffffffffffffff1673ffffffffffffffffffffffffffffffffffffffff16815260200183815260200180602001828103825283818151815260200191508051906020019080838360005b8381101561228c578082015181840152602081019050612271565b50505050905090810190601f1680156122b95780820380516001836020036101000a031916815260200191505b5095505050505050602060405180830381600087803b1580156122db57600080fd5b505af11580156122ef573d6000803e3d6000fd5b505050506040513d602081101561230557600080fd5b8101908080519060200190929190505050905063150b7a0260e01b7bffffffffffffffffffffffffffffffffffffffffffffffffffffffff1916817bffffffffffffffffffffffffffffffffffffffffffffffffffffffff1916149150505b949350505050565b600080823b90506000811191505091905056fe6f6e455243373231526563656976656428616464726573732c616464726573732c75696e743235362c627974657329a265627a7a72315820eeb805248728dc59de490700b68d971fe636806ac33b565277b877e09a5df5e964736f6c63430005100032",
  "source": "pragma solidity ^0.5.0;\n\nimport \"./interfaces/ERC721.sol\";\nimport \"./interfaces/ERC721Receiver.sol\";\nimport \"./interfaces/extensions/ERC721Metadata.sol\";\nimport \"./interfaces/extensions/ERC721Enumerable.sol\";\n\ncontract DSM is ERC721, ERC721Receiver, ERC721Metadata, ERC721Enumerable, ERC165{\n    string private _name = \"Ezra\";\n    string private _symbol = \"EZ\";\n    uint256 private _totalSupply;\n\n    bytes4 private constant _INTERFACE_ID_ERC721 = 0x80ac58cd;\n    bytes4 private constant _ERC721_RECEIVED = 0x150b7a02;\n\n    event Transfer(address indexed _from, address indexed _to, uint256 indexed _tokenId);\n    event Approval(address indexed _owner, address indexed _approved, uint256 indexed _tokenId);\n    event ApprovalForAll(address indexed _owner, address indexed _operator, bool _approved);\n\n    uint256[] private _tokenIndex;\n\n    mapping (uint256 => string) private _tokenURI;\n    mapping (bytes4 => bool) private _interfaces;\n    mapping (address => uint256) private _balance;\n    mapping (uint256 => address) private _owner;\n    mapping (uint256 => address) private _approvedAddress;\n    mapping(address => uint256[]) private _ownedTokens;\n    mapping (address => mapping(address => bool)) private _authorizedOperator;\n\n    constructor(string memory nm, string memory sym, uint256 ts) public {\n        _name = nm;\n        _symbol = sym;\n        _totalSupply = ts;\n        registerInterface(_INTERFACE_ID_ERC721);\n    }\n\n    function onERC721Received(address _operator, address _from, uint256 _tokenId, bytes calldata _data) external returns(bytes4){\n        return bytes4(keccak256(\"onERC721Received(address,address,uint256,bytes)\"));\n    }\n\n    function supportsInterface(bytes4 interfaceID) external view returns (bool){\n        return _interfaces[interfaceID];\n    }\n\n    function registerInterface(bytes4 interfaceId) internal {\n        require(interfaceId != 0xffffffff);\n        _interfaces[interfaceId] = true;\n    }\n\n    function name() external view returns (string memory) {\n        return _name;\n    }\n\n    function symbol() external view returns (string memory){\n        return _symbol;\n    }\n\n    function totalSupply() external view returns (uint256){\n        return _totalSupply;\n    }\n\n    function setName(string memory nm) internal returns (string memory) {\n        _name = nm;\n    }\n\n    function setSymbol(string memory sym) internal returns (string memory){\n        _symbol = sym;\n    }\n\n    function setTotalSupply(uint256 ts) internal returns (uint256){\n        _totalSupply = ts;\n    }\n\n    function tokenByIndex(uint256 _index) external view returns (uint256){\n        require(_index < this.totalSupply());\n        return _tokenIndex[_index];\n    }\n\n    function tokenOfOwnerByIndex(address owner, uint256 _index) external view returns (uint256){\n        require(_index < this.balanceOf(owner));\n        return _ownedTokens[owner][_index];\n    }\n\n\n    function tokenURI(uint256 _tokenId) external view returns (string memory){\n        require(_owner[_tokenId] != address(0));\n        return _tokenURI[_tokenId];\n    }\n\n    function setTokenURI(uint256 _tokenId, string storage _uri) internal {\n        require(_owner[_tokenId] != address(0));\n        _tokenURI[_tokenId] = _uri;\n    }\n\n    function balanceOf(address owner) external view returns (uint256){\n        require(owner != address(0));\n        return _balance[owner];\n    }\n\n    function ownerOf(uint256 _tokenId) external view returns (address){\n        address owner = _owner[_tokenId];\n        require(owner != address(0));\n        return owner;\n    }\n\n    function safeTransferFrom(address _from, address _to, uint256 _tokenId, bytes calldata data) external payable {\n        require(this.ownerOf(_tokenId) == msg.sender || _authorizedOperator[_from][msg.sender] == true || _approvedAddress[_tokenId] == msg.sender);\n        require(this.ownerOf(_tokenId) == _from);\n        require(_to != address(0));\n        require(this.ownerOf(_tokenId) != address(0));\n        require(checkOnERC721Received(_from,_to, _tokenId, data));\n        this.approve(address(0),_tokenId);\n\n        _balance[_from] -= 1;\n        _balance[_to] += 1;\n        _owner[_tokenId] = _to;\n        emit Transfer(_from,_to,_tokenId);\n    }\n\n\n    function safeTransferFrom(address _from, address _to, uint256 _tokenId) external payable {\n        this.safeTransferFrom(_from,_to,_tokenId, \" \");\n    }\n\n    function transferFrom(address _from, address _to, uint256 _tokenId) external payable{\n        require(this.ownerOf(_tokenId) == msg.sender || _authorizedOperator[_from][msg.sender] == true || this.getApproved(_tokenId) == msg.sender);\n        require(this.ownerOf(_tokenId) == _from);\n        require(_to != address(0));\n        require(this.ownerOf(_tokenId) != address(0));\n        this.approve(address(0),_tokenId);\n\n        _balance[_from] -= 1;\n        _balance[_to] += 1;\n        _owner[_tokenId] = _to;\n        emit Transfer(_from,_to,_tokenId);\n    }\n\n    function approve(address _approved, uint256 _tokenId) external payable{\n        require(_approved != address(0));\n        require(this.ownerOf(_tokenId) == msg.sender || _authorizedOperator[msg.sender][_approved] == true);\n        _approvedAddress[_tokenId] = _approved;\n        emit Approval(this.ownerOf(_tokenId), _approved, _tokenId);\n\n    }\n\n    function _mint(string memory nm, string memory sym, uint256 tS) internal{\n        _name = nm;\n        _symbol = sym;\n        _totalSupply = tS;\n    }\n\n    function setApprovalForAll(address _operator, bool _approved) external{\n        require(_operator != msg.sender);\n        _authorizedOperator[msg.sender][_operator] = _approved;\n        emit ApprovalForAll(msg.sender, _operator, _approved);\n    }\n\n    function getApproved(uint256 _tokenId) external view returns (address){\n        require(this.ownerOf(_tokenId) != address(0));\n        return _approvedAddress[_tokenId];\n    }\n\n    function isApprovedForAll(address owner, address _operator) external view returns (bool){\n        return _authorizedOperator[owner][_operator];\n    }\n\n    function checkOnERC721Received(address _from, address _to, uint256 _tokenId, bytes memory _data) internal returns (bool){\n        if (!isContract(_to)) {\n            return true;\n        }\n\n        bytes4 retval = ERC721Receiver(_to).onERC721Received(msg.sender, _from, _tokenId, _data);\n        return (retval == _ERC721_RECEIVED);\n    }\n\n    function isContract(address addr) internal returns (bool) {\n        uint size;\n        assembly { size := extcodesize(addr) }\n        return size > 0;\n    }\n}\n",
  "sourcePath": "/home/esdras/Documents/decentralized_stock_market/contracts/DSM.sol",
  "compiler": {
    "name": "solc",
    "version": "0.5.16+commit.9c3226ce.Emscripten.clang"
  },
  "schemaVersion": "3.3.3",
  "updatedAt": "2021-03-10T21:08:15.582Z",
  "networkType": "ethereum",
  "devdoc": {
    "methods": {}
  },
  "userdoc": {
    "methods": {}
  }
}